:100000001DC037C036C035C034C054C132C031C045
:1000100030C02FC02EC02DC02CC02BC02AC0010262
:10002000000004000000000038000000000037005D
:1000300002020202020201020408102011241FBE63
:10004000CFE5D2E0DEBFCDBF20E0A4E6B0E001C046
:100050001D92A737B207E1F710E0A0E6B0E0E0EDAF
:10006000F6E002C005900D92A436B107D9F76CD125
:100070002DC3C6CFE6E3F0E02491E0E3F0E0849105
:10008000882399F090E0880F991FFC01E65DFF4FEF
:10009000A591B491FC01EC5DFF4F859194918FB7D0
:1000A000F894EC91E22BEC938FBF0895EEE1F0E031
:1000B0002491E6E3F0E09491E0E3F0E0E491EE23B4
:1000C00049F1222399F0223071F028F4213071F4A3
:1000D0002AB52F770AC0233011F0243039F42CB51B
:1000E0002F7D2CBD03C02AB52F7D2ABDF0E0EE0F79
:1000F000FF1FEC5DFF4FA591B4912FB7F8948111CC
:1001000005C08C91E92FE095E82302C0EC91E92B22
:10011000EC932FBF0895CF93DF93EC01ABDF2097D3
:1001200011F480E004C0CF3FD10521F481E0DF91DC
:10013000CF91BCCFEEE1F0E0E491E23089F038F409
:10014000E130C1F48AB580688ABDC9BD17C0E3300B
:1001500061F0E43079F48CB580628CBDCBBD0EC00B
:100160008AB580628ABDC8BD09C08CB580628CBD6D
:10017000CEBD04C0C038D105CCF6D3CFDF91CF912E
:1001800008953FB7F8948091690090916A00A0911A
:100190006B00B0916C0022B708B601FE05C02F3F7E
:1001A00019F00196A11DB11D3FBFBA2FA92F982F9D
:1001B0008827820F911DA11DB11DBC01CD0143E017
:1001C000660F771F881F991F4A95D1F708958F9260
:1001D0009F92AF92BF92CF92DF92EF92FF926B010C
:1001E0007C01CFDF4B015C01C114D104E104F104B7
:1001F000E9F0C7DFDC01CB0188199909AA09BB091D
:10020000883E9340A105B10578F321E0C21AD108D8
:10021000E108F10888EE880E83E0981EA11CB11C4D
:10022000C114D104E104F10421F7DECFFF90EF9077
:10023000DF90CF90BF90AF909F908F900895CF9216
:10024000DF92EF92FF920F931F93CF93DF9300D033
:1002500000D0CDB7DEB76217730784079507ECF4BB
:1002600089019A016B017C01A9019801261B370BBA
:10027000480B590B59F029833A834B835C8359D13E
:1002800029813A814B815C8161D103C060E070E0DB
:10029000CB016C0D7D1D8E1D9F1D0F900F900F903B
:1002A0000F90DF91CF911F910F91FF90EF90DF9012
:1002B000CF9008951F920F920FB60F9211242F9393
:1002C0003F938F939F93AF93BF93809165009091DD
:1002D0006600A0916700B09168003091640026E04C
:1002E000230F2D3720F40296A11DB11D05C029E86A
:1002F000230F0396A11DB11D209364008093650018
:1003000090936600A0936700B093680080916900A5
:1003100090916A00A0916B00B0916C000196A11DB4
:10032000B11D8093690090936A00A0936B00B09315
:100330006C00BF91AF919F918F913F912F910F9042
:100340000FBE0F901F90189578948AB582608ABD71
:100350008AB581608ABD83B7826083BF83B78160BD
:1003600083BF89B7826089BF80B7826080BF80B752
:10037000816080BF8CB580648CBD329A319A309890
:10038000379A78DEC0E0D0E02FEA30E040E050E07D
:100390006FE070E080E090E052DF70937600609351
:1003A00075002FEA30E040E050E06FE070E080E060
:1003B00090E045DF709374006093730020E031E0BB
:1003C00040E050E064EB70E080E090E038DF709354
:1003D00072006093710028EE33E040E050E060E28C
:1003E00073E080E090E02BDF7093700060936F000B
:1003F00028EE33E040E050E060E273E080E090E01F
:100400001EDF70936E0060936D0000917500109177
:1004100076008091710090917200081719078CF492
:10042000C80179DEE0916F00F0917000E330F105D2
:1004300028F0EE0FFF1F34973197F1F70F5F1F4F32
:10044000E8CF20E530E040E050E064E170E080E09B
:1004500090E0F5DEBCDE0091710010917200809199
:10046000730090917400081719078CF0C80153DECF
:10047000E0916D00F0916E00E330F10528F0EE0F91
:10048000FF1F34973197F1F701501109E8CF28EC9D
:1004900030E040E050E064E670E080E090E0CFDEE5
:1004A00096DE209709F470CFABDD6ECFA0E0B0E010
:1004B000EBE5F2E08AC0EC01688179818A819B8159
:1004C000611571058105910521F464E279ED8BE5F3
:1004D00097E02DE133EF41E050E038D049015A0177
:1004E00027EA31E440E050E04DD069017A01C501CE
:1004F000B4012CEE34EF4FEF5FEF44D0022F132FF7
:100500009A01D701C601800F911FA21FB31FB7FF29
:1005100003C00197A109B04888839983AA83BB834C
:10052000BC01CD019F77CDB7DEB7ECE06AC0BEDF7E
:10053000089580E690E0BADF0895609360007093BC
:10054000610080936200909363000895052E97FBED
:1005500016F400940FD057FD05D068D007FC02D0E8
:1005600046F408C050954095309521953F4F4F4F28
:100570005F4F089590958095709561957F4F8F4F4F
:100580009F4F089568940013E894A0E0B0E0EAEC6F
:10059000F2E01DC0EFEFE7F959016A015E23550F44
:1005A000EE08FE2C87019B01AC019E23990F660B80
:1005B000762FCB015DD0CDB7DEB7EAE024C02F9215
:1005C0003F924F925F926F927F928F929F92AF92E3
:1005D000BF92CF92DF92EF92FF920F931F93CF9330
:1005E000DF93CDB7DEB7CA1BDB0B0FB6F894DEBFC7
:1005F0000FBECDBF09942A88398848885F846E84ED
:100600007D848C849B84AA84B984C884DF80EE8036
:10061000FD800C811B81AA81B981CE0FD11D0FB63F
:10062000F894DEBF0FBECDBFED010895A1E21A2EF2
:10063000AA1BBB1BFD010DC0AA1FBB1FEE1FFF1F86
:10064000A217B307E407F50720F0A21BB30BE40BD6
:10065000F50B661F771F881F991F1A9469F760951D
:100660007095809590959B01AC01BD01CF010895D7
:10067000DF93CF939F92A0E49A2E0024D001E00153
:10068000F00116950795F794E794D794C794B7941B
:10069000A79448F41068A20FB31FC41FD51FE61F0C
:1006A000F71F081E191E220F331F441F551F661FF8
:1006B000771F881F991F9A9421F79D01AE01BF01F2
:1006C000C00111249F90CF91DF910895F894FFCF3E
:0406D0000100000025
:00000001FF
